{
    "contractName": "Inheritance",
    "abi": [
        {
            "inputs": [],
            "stateMutability": "payable",
            "type": "constructor"
        },
        {
            "inputs": [],
            "name": "died",
            "outputs": [],
            "stateMutability": "nonpayable",
            "type": "function"
        },
        {
            "inputs": [
                {
                    "internalType": "address",
                    "name": "_wallet",
                    "type": "address"
                },
                {
                    "internalType": "uint256",
                    "name": "_inheritance",
                    "type": "uint256"
                }
            ],
            "name": "setup",
            "outputs": [],
            "stateMutability": "nonpayable",
            "type": "function"
        }
    ],
    "bytecode": "6080604052600080543460015560ff60a01b1933166001600160a81b031990911617905561027e806100326000396000f3fe608060405234801561001057600080fd5b50600436106100365760003560e01c8063f46d19821461003b578063f7a2a7c714610050575b600080fd5b61004e6100493660046101d1565b610058565b005b61004e6100cb565b6000546001600160a01b0316331461006f57600080fd5b60028054600181019091557f405787fa12a823e0f2b7631cc41b3ba8828b3321ca811111fa75cd3aa3bb5ace0180546001600160a01b039093166001600160a01b03199093168317905560009182526003602052604090912055565b6000546001600160a01b031633146100e257600080fd5b6000805460ff60a01b1916600160a01b1790556100fd6100ff565b565b600054600160a01b900460ff16151560011461011a57600080fd5b60005b6002548110156101ce576002818154811061013a5761013a610209565b6000918252602082200154600280546001600160a01b03909216926108fc92600392908690811061016d5761016d610209565b60009182526020808320909101546001600160a01b03168352820192909252604090810182205490518115909302929091818181858888f193505050501580156101bb573d6000803e3d6000fd5b50806101c68161021f565b91505061011d565b50565b600080604083850312156101e457600080fd5b82356001600160a01b03811681146101fb57600080fd5b946020939093013593505050565b634e487b7160e01b600052603260045260246000fd5b600060001982141561024157634e487b7160e01b600052601160045260246000fd5b506001019056fea2646970667358221220e1b728dc7722340111259cdead661a0d47f486739e522ca4be1f03d02241079064736f6c634300080c0033",
    "sourcePath": "/Users/kelvini/Projects/Blockchain-Solidity/contracts/Inheritance.sol",
    "compiler": {
        "name": "solc",
        "version": "0.8.12+commit.f00d7308"
    },
    "functionHashes": {
        "died()": "f7a2a7c7",
        "setup(address,uint256)": "f46d1982"
    },
    "gasEstimates": {
        "creation": {
            "codeDepositCost": "127600",
            "executionCost": "46508",
            "totalCost": "174108"
        },
        "external": {
            "died()": "infinite",
            "setup(address,uint256)": "73068"
        },
        "internal": {
            "moneyPaid()": "infinite"
        }
    }
}