{
    "contractName": "SimpleContract",
    "abi": [
        {
            "anonymous": false,
            "inputs": [
                {
                    "indexed": false,
                    "internalType": "address",
                    "name": "from",
                    "type": "address"
                },
                {
                    "indexed": false,
                    "internalType": "address",
                    "name": "to",
                    "type": "address"
                },
                {
                    "indexed": false,
                    "internalType": "uint256",
                    "name": "storedData",
                    "type": "uint256"
                }
            ],
            "name": "Sent",
            "type": "event"
        },
        {
            "inputs": [
                {
                    "internalType": "uint256",
                    "name": "x",
                    "type": "uint256"
                }
            ],
            "name": "set",
            "outputs": [],
            "stateMutability": "nonpayable",
            "type": "function"
        }
    ],
    "bytecode": "6080604052348015600f57600080fd5b50608d8061001e6000396000f3fe6080604052348015600f57600080fd5b506004361060285760003560e01c806360fe47b114602d575b600080fd5b603d6038366004603f565b600055565b005b600060208284031215605057600080fd5b503591905056fea264697066735822122000f5b70ca61fb7a71b6b12e71182a3081d6a7ed88f781fe1e57e1b3f6e81f38164736f6c634300080c0033",
    "sourcePath": "/Users/kelvini/Projects/Blockchain-Solidity/basics/syntax.sol",
    "compiler": {
        "name": "solc",
        "version": "0.8.12+commit.f00d7308"
    },
    "functionHashes": {
        "set(uint256)": "60fe47b1"
    },
    "gasEstimates": {
        "creation": {
            "codeDepositCost": "28200",
            "executionCost": "81",
            "totalCost": "28281"
        },
        "external": {
            "set(uint256)": "22290"
        }
    }
}